:0C00000030C0FECFFDCFFCCFFBCFFACF0D
:10000C00F9CFF8CF68C2C6C1F5CFF4CFF3CFF2CF9A
:10001C00F1CFF0CFEFCFEECFEDCF00007C007C0026
:10002C000A003F0006005B004F0066006D007D007B
:10003C0007007F006F0001000200260001007E0116
:10004C002800010080012A00010082012C0013000D
:10005C008A012E000000F894EE27ECBBF1E0FBBF08
:10006C00EBBFE5BFF8E1F1BDE1BD8DE0A2E0BB2740
:10007C00ED938A95E9F780E094E0A0E6ED93019783
:10008C00E9F7E2E4F0E085919591009761F0A59194
:10009C00B59105901590BF01F00105900D92019757
:1000AC00E1F7FB01F0CFEFE5EDBFE4E0EEBFC0E61A
:1000BC00D1E031C2E3E0E3BFE2E8E2BFE0E0EFBD54
:1000CC00E2E0EEBDB6D2BAD2E5E0E9BF789408958D
:1000DC00E0E0E3BFE2BFEFBDEEBDEDBDECBDAED2E7
:1000EC00E0E0E9BFE9E1E1BDE9E0E1BDF8940895A4
:1000FC00E881F0E0309719F4E0918A013FC0A6D274
:10010C0019F4E0918C013AC0A5D219F4E0918E015A
:10011C0035C0A4D219F4E091900130C0E430A0E0D5
:10012C00FA0719F4E091920129C0E530A0E0FA0732
:10013C0019F4E091940122C0E630A0E0FA0719F41A
:10014C00E09196011BC0E730A0E0FA0719F4E091AA
:10015C00980114C0E830A0E0FA0719F4E0919A0174
:10016C000DC0E930A0E0FA0719F4E0919C0106C03B
:10017C00EA30A0E0FA0719F4E0919E01E2BB219667
:10018C00089570D274D279D2A1F57CD21A970CF062
:10019C007ED284D224F466D2AC9A83D285D27ED21B
:1001AC0014F086D20CF002C05DD261D281D214F070
:1001BC0082D20CF005C056D2AC98A89AC5987ED2C3
:1001CC007AD214F07FD20CF002C04CD250D27AD238
:1001DC0014F07BD20CF005C045D2AC98A898C59A07
:1001EC0077D273D214F078D20CF002C03BD23FD24B
:1001FC004BC030D2B1F570D20CF049D24FD224F4AE
:10020C006ED2AB9A6FD250D249D214F051D20CF0BC
:10021C0003C065D26AD26BD24BD214F04CD20CF024
:10022C0005C05DD2AB98A99AAD9848D244D214F0CF
:10023C0049D20CF003C053D258D259D243D214F045
:10024C0044D20CF005C04BD2AB98A998AD9A40D2D1
:10025C003CD214F041D20CF003C041D246D247D26A
:10026C0013C0FCD189F438D20CF011D217D22CF473
:10027C00AC983BD2AA9A15D217D210D214F02CD229
:10028C000CF002C0EFD1F3D1089534D249F538D235
:10029C0011F470D272D276D209F47AD22BD201F543
:1002AC007DD2ECF0B19B02C0B29901C002C07CD2ED
:1002BC007ED226D241F480D2A436E0E0BE0714F000
:1002CC0080D201C084D25ED209F462D275D281D2BE
:1002DC00EA17FB0724F07DD27FD283D259D2DECF2E
:1002EC0086D209F58AD209F472D24CD209F450D2D2
:1002FC007ED2C9F453D2B4F080D241F4B3D2A43636
:10030C00E0E0BE0714F05DD201C061D23BD209F42B
:10031C003FD2A8D25ED2EA17FB0724F05AD2A7D25A
:10032C0060D236D2E5CFA8D2A1F5ACD2B1D230D2C0
:10033C00A3D279F5C1D2A93BE1E0BE07A4F0C8DE97
:10034C00C0D2C5D2CAD2CFD2D4D2D9D29BD2E0E0BD
:10035C00E0936001E093610127D2E0938801F09370
:10036C008901689420F8A0917801B0917901979750
:10037C007CF088D28DD20CD2A0918201B0918301F5
:10038C0028D2EA17FB0724F024D2BFD22AD200D2FB
:10039C00CFCF08950A921A929A93AA93BA93EA939A
:1003AC00FA93EFB7EA93E2E8E2BFACE7B1E0B2D27E
:1003BC00A0917C01B0917D0159970CF482C0E0E0D2
:1003CC00E0937C01E0937D0158D151F5A2E7B1E0B7
:1003DC00A1D2B19B05C0A0E0B299A1E0A03009F078
:1003EC000FC0AAE6B1E096D23197E2E0F0E098D2E5
:1003FC0034F0A0917201B091730199D2EDD161D218
:10040C00A0916A01B0916B0115974CF06CD2E09100
:10041C007E01F0917F01E0938401F09385014EC041
:10042C0019D129F5A4E7B1E075D2B19B02C0B299FC
:10043C0001C00DC0ACE6B1E06DD2B6D171D234F0D2
:10044C00A0917401B091750172D211D240D2A091D9
:10045C006C01B0916D0115974CF04BD2E09180017D
:10046C00F0918101E0938601F093870127C0F6D0CB
:10047C0029F5A6E7B1E04ED2A0E0B199A1E0A030F9
:10048C0011F4B29901C00BC0AEE6B1E043D2E1E089
:10049C00F0E046D21CF010D24AD237D21ED2A09134
:1004AC006E01B0916F0115974CF029D2E091820149
:1004BC00F0918301E0937A01F0937B01A8E7B1E01E
:1004CC0029D2E991EFBFF991E991B991A99199914B
:1004DC001990099018950A921A92FA926A937A9343
:1004EC008A939A93AA93BA93EA93FA93EFB7EA93FF
:1004FC00A0D0A8E6B1E00ED244DEE991EFBFF991AD
:10050C00E991B991A9919991899179916991F99010
:10051C00199009901895E0E2E8BBE7BBEFE3E5BB67
:10052C00E4BBE0E0E2BBEFEFE1BBB19903C0E1E07B
:10053C00F0E006C0B29903C0E2E0F0E001C034D1B3
:10054C00E0936001F0936101B5DDF5D10CF0F9D1C8
:10055C00F2D10CF0F6D1A0918801B09189011297DB
:10056C000CF465C020FE1EC0A0E0B199A1E0EFD153
:10057C000E2EA0E0B299A1E0EAD1E02991F09ADD2B
:10058C00E89420F8B19903C0E1E0F0E006C0B2991C
:10059C0003C0E2E0F0E001C007D1E0936001F0930A
:1005AC006101E0CFE0E0E0937001E0937101A09174
:1005BC007001B09171011297ACF5E89421F822F812
:1005CC0023F8E0918401F091850106D1E091860138
:1005DC00F09187014CD1E0917A01F0917B0195D19A
:1005EC00A0E021FCA1E0B3D10E2EA0E022FCA1E002
:1005FC00AED10E22A0E023FCA1E0A9D1E02171F044
:10060C0079D011F4689423F8F2D011F4689421F89D
:10061C0033D111F4689422F838DEE2CFA0E7B1E0D0
:10062C0079D1C5CFE0E0E0938801E093890190CFC8
:10063C00FFCFECEFEDBDE7E1ECBD0895E0E0E7BDE9
:10064C00E6BDEBBDEABDE9BDE8BD0895E130A0E033
:10065C00FA070895E230A0E0FA070895E330A0E02D
:10066C00FA070895AA98AB98A998AD980895AC98F4
:10067C00A898C598EAE0EA933BCDE0916001F0912F
:10068C006101E4CFA0916801B09169010895E1E0A6
:10069C00F0E0E0936801F09369010895F3DF13979C
:1006AC000895A898C5980895E0916201EA9320CD29
:1006BC00E9DF14970895E6DF16970895E091640139
:1006CC00EA9316CDDFDF17970895DCDF19970895AD
:1006DC00E0916601EA930CCDD5DF1A970895AA989C
:1006EC00AC98DFCFA998AD980895AB98FBCFEAE012
:1006FC00EA93FECCA0916001B0916101119708952D
:10070C00E0E0E0937801E0937901AEE7B1E0ED91A0
:10071C00FD913197FE93EE93A0917E01B0917F01F4
:10072C00E4E6F0E040D1E0936601F0936701A4E6C3
:10073C00B0E021D1A0917E01B0917F01AE1BBF0B27
:10074C00EAE0F0E030D1E0936401F0936501A09110
:10075C007E01B0917F01EAE0F0E02AD1EF70F070F9
:10076C00E0936201F0936301E0916401F091650103
:10077C0030970895EAE0F0E00895E0936401F09377
:10078C0065010895E0916601F09167013097089535
:10079C00F1DFE0936601F09367010895A091780171
:1007AC00B091790198970895E3E0F0E00895E09313
:1007BC006001F09361010895A0917E01B0917F01D9
:1007CC000895E0E0E0936401E09365010895D2DFC1
:1007DC00D4CFEFEFFFEF0895E0937E01F0937F010C
:1007EC000895C8DFE0936201F0936301F0CFA0910C
:1007FC006001B091610112970895E0E0E0937801F7
:10080C00E0937901A0E8B1E0ED91FD913197FE9371
:10081C00EE93A0918001B0918101E4E6F0E0C3D0A9
:10082C00E0936601F0936701A4E6B0E0A4D0A09138
:10083C008001B0918101AE1BBF0B9CDFB4D09DDF5A
:10084C00A0918001B091810195DFB2D0EF70F07072
:10085C00E0936201F0936301E0916401F091650112
:10086C0030970895A0918001B09181010895E09393
:10087C008001F09381010895A0916001B091610114
:10088C0013970895E0E0E0937801E09379010895DF
:10089C00A2E8B1E0ED91FD913197FE93EE93A0911A
:1008AC008201B091830166DF83D0EF70F070E0932A
:1008BC006201F09363018BCFA0917601B091770127
:1008CC000895E0E0E0937201E09373010895E0E095
:1008DC00E0937401E09375010895E0E0E0937601F4
:1008EC00E09377010895E0E0E0936A01E0936B01F7
:1008FC000895E0E0E0936C01E0936D010895E0E071
:10090C00E0936E01E0936F010895E0938201F09300
:10091C0083010895ED91FD913196FE93EE93089528
:10092C0046DFA0918801B09189015ED00895E8E27C
:10093C00F0E039D00895A0918801B091890154D08C
:10094C000895E0E0E0938801E09389019ECCE0E01B
:10095C0005D00895F195E195F0400895EA17E1E08E
:10096C0009F0EE270895FA9FF02DEB9FF00DEA9F0A
:10097C00E02DF10D08952AD0F6DF0EF4EBDF08958B
:10098C000024112490E1AA0FBB1F001C111C0E1A8D
:10099C001F0A18F40E0E1F1E01C0A1609A9599F73C
:1009AC00FD01D001089512D0EBDF0EF4D3DF0895D2
:1009BC00E894B7FF04C0A095B09511966894F7FD24
:1009CC00C9DFDEDFFD010EF4C5DF0895E894F7FF03
:1009DC0002C0C0DF6894B7FF06C0A095B095119611
:1009EC0000F8039400FA089500240A160B060895E3
:00000001FF
