:0800000030C0FECFFDCFFCCFA4
:10000800FBCFFACFF9CFF8CFF7CFBDC1F5CFF4CFFB
:10001800F3CFF2CFF1CFF0CFEFCFEECFEDCF00009F
:100028007C007C000A003F0006005B004F00660071
:100038006D007D0007007F006F00010002002600B0
:10004800010080012800010082012A0001008401CA
:100058002C0013008C012E000000F894EE27ECBB56
:10006800F1E0FBBFEBBFE5BFF8E1F1BDE1BD8DE01D
:10007800A2E0BB27ED938A95E9F780E094E0A0E63B
:10008800ED930197E9F7E2E4F0E085919591009707
:1000980061F0A591B59105901590BF01F00105900B
:1000A8000D920197E1F7FB01F0CFEFE5EDBFE4E03A
:1000B800EEBFC0E6D1E023C2E3E0E3BFE2E8ADD2A1
:1000C800E9E1E1BDE9E0E1BD78940895E0E0E3BF4E
:1000D800A4D2E9E1E1BDE9E0E1BD78940895E881C1
:1000E800F0E0309719F4E0918C013FC0A9D219F4DF
:1000F800E0918E013AC0A8D219F4E091900135C080
:10010800A7D219F4E091920130C0E430A0E0FA07D8
:1001180019F4E091940129C0E530A0E0FA0719F438
:10012800E091960122C0E630A0E0FA0719F4E091C8
:1001380098011BC0E730A0E0FA0719F4E0919A0192
:1001480014C0E830A0E0FA0719F4E0919C010DC052
:10015800E930A0E0FA0719F4E0919E0106C0EA3000
:10016800A0E0FA0719F4E091A001E2BB21960895F6
:1001780073D277D27CD2A1F57FD21A970CF081D2B4
:1001880087D224F469D2AC9A86D288D281D214F06C
:1001980089D20CF002C060D264D284D214F085D225
:1001A8000CF005C059D2AC98A89AC59881D27DD2D6
:1001B80014F082D20CF002C04FD253D27DD214F088
:1001C8007ED20CF005C048D2AC98A898C59A7AD2CD
:1001D80076D214F07BD20CF002C03ED242D24DC08F
:1001E80033D2C9F573D20CF04CD252D224F471D266
:1001F800AB9A72D253D24CD214F054D20CF004C041
:1002080068D2AB9869D26BD24DD214F04ED20CF0B2
:1002180005C05FD2AB98A99AAD984AD246D214F0DD
:100228004BD20CF004C055D2AB9856D258D244D217
:1002380014F045D20CF005C04CD2AB98A998AD9AF1
:1002480041D23DD214F042D20CF004C042D2AB9855
:1002580043D245D212C0FCD181F438D20CF011D26D
:1002680017D224F4F9D1AA9A16D218D211D214F0BE
:100278002DD20CF002C0F0D1F4D1089533D249F553
:1002880037D211F46FD271D275D209F479D22AD249
:1002980001F57CD2ECF0B19B02C0B29901C002C05A
:1002A8007BD27DD225D241F47FD2A436E0E0BE07CE
:1002B80014F07FD201C083D25DD209F461D274D226
:1002C80080D2EA17FB0724F07CD27ED282D258D2A1
:1002D800DECF85D209F589D209F471D24BD209F45F
:1002E8004FD27DD2C9F452D2B4F07FD241F4B2D207
:1002F800A436E0E0BE0714F05CD201C060D23AD266
:1003080009F43ED2A7D25DD2EA17FB0724F059D2EE
:10031800A6D25FD235D2E5CFA7D2A1F5ABD2B0D263
:100328002FD2A2D279F5C0D2A93BE1E0BE07A4F052
:10033800CDDEBFD2C4D2C9D2CED2D3D2D8D29AD2ED
:10034800E0E0E0936001E093610126D2E0938A0146
:10035800F0938B01689420F8A0917801B09179010D
:1003680097977CF087D28CD20BD2A0918401B09160
:10037800850127D2EA17FB0724F023D2BED229D25F
:10038800FFD1CFCF08950A921A92FA926A937A937C
:100398008A939A93AA93BA93EA93FA93EFB7EA9354
:1003A800E2E8E2BFACE7B1E0ADD2A0917C01B09148
:1003B8007D0159970CF482C0E0E0E0937C01E09362
:1003C8007D0155D151F5A2E7B1E09CD2B19B05C0A2
:1003D800A0E0B299A1E0A03009F00FC0AAE6B1E010
:1003E80091D23197E2E0F0E093D234F0A09172011B
:1003F800B091730194D2E8D15CD2A0916A01B09116
:100408006B0115974CF067D2E0918001F091810162
:10041800E0938601F09387014EC016D129F5A4E731
:10042800B1E070D2B19B02C0B29901C00DC0ACE678
:10043800B1E068D2B1D16CD234F0A0917401B0911E
:1004480075016DD20CD23BD2A0916C01B0916D01B7
:1004580015974CF046D2E0918201F0918301E09328
:100468008801F093890127C0F3D029F5A6E7B1E008
:1004780049D2A0E0B199A1E0A03011F4B29901C02D
:100488000BC0AEE6B1E03ED2E1E0F0E041D21CF0B4
:100498000BD245D232D219D2A0916E01B0916F0120
:1004A80015974CF024D2E0918401F0918501E093F6
:1004B8007A01F0937B01A8E7B1E024D2AEE7B1E07E
:1004C80021D2A0917E01B0917F011F9731F4E0E025
:1004D800E0937E01E0937F01A895A8E6B1E012D2EF
:1004E80047DEE991EFBFF991E991B991A991999105
:1004F800899179916991F990199009901895E0E29C
:10050800E8BBE7BBEFE3E5BBE4BBE0E0E2BBEFEF52
:10051800E1BBB19903C0E1E0F0E006C0B29903C0C5
:10052800E2E0F0E001C038D1E0936001F0936101AE
:10053800C3DDF9D10CF0FDD1F6D10CF0FAD1A091C0
:100548008A01B0918B0112970CF465C020FE1EC081
:10055800A0E0B199A1E0F3D10E2EA0E0B299A1E0FC
:10056800EED1E02991F0A8DDE89420F8B19903C014
:10057800E1E0F0E006C0B29903C0E2E0F0E001C0BB
:100588000BD1E0936001F0936101E0CFE0E0E093EC
:100598007001E0937101A0917001B09171011297FF
:1005A800ACF5E89421F822F823F8E0918601F0915F
:1005B80087010AD1E0918801F091890150D1E09139
:1005C8007A01F0917B0199D1A0E021FCA1E0B7D19B
:1005D8000E2EA0E022FCA1E0B2D10E22A0E023FC66
:1005E800A1E0ADD1E02171F07DD011F4689423F839
:1005F800F6D011F4689421F837D111F4689422F8F0
:100608003DDEE2CFA0E7B1E07DD1C5CFE0E0E093E9
:100618008A01E0938B0190CFFFCFE2BFE0E0E2BD1B
:10062800E5BDE4BDE3BDE5BFE1E0E9BFE0E0EAB96F
:10063800E0E8E8B9E0E0E0BFE6B9EDB9E6BF089563
:10064800E130A0E0FA070895E230A0E0FA07089543
:10065800E330A0E0FA070895AA98AB98A998AD9856
:100668000895AC98A898C598EAE0EA9338CDE09147
:100678006001F0916101E4CFA0916801B091690136
:100688000895E1E0F0E0E0936801F09369010895CE
:10069800F3DF13970895A898C5980895E09162012B
:1006A800EA931DCDE9DF14970895E6DF16970895BC
:1006B800E0916401EA9313CDDFDF17970895DCDF3B
:1006C80019970895E0916601EA9309CDD5DF1A9745
:1006D8000895AA98AC98DFCFA998AD980895EAE054
:1006E800EA93FDCCA0916001B09161011197089542
:1006F800E0E0E0937801E0937901A0E8B1E0ED91C2
:10070800FD913197FE93EE93A0918001B091810104
:10071800E4E6F0E040D1E0936601F0936701A4E6D7
:10072800B0E021D1A0918001B0918101AE1BBF0B37
:10073800EAE0F0E030D1E0936401F0936501A09124
:100748008001B0918101EAE0F0E02AD1EF70F07009
:10075800E0936201F0936301E0916401F091650117
:1007680030970895EAE0F0E00895E0936401F0938B
:1007780065010895E0916601F09167013097089549
:10078800F1DFE0936601F09367010895A091780185
:10079800B091790198970895E3E0F0E00895E09327
:1007A8006001F09361010895A0918001B0918101E9
:1007B8000895E0E0E0936401E09365010895D2DFD5
:1007C800D4CFEFEFFFEF0895E0938001F09381011C
:1007D8000895C8DFE0936201F0936301F0CFA09120
:1007E8006001B091610112970895E0E0E09378010B
:1007F800E0937901A2E8B1E0ED91FD913197FE9384
:10080800EE93A0918201B0918301E4E6F0E0C3D0B9
:10081800E0936601F0936701A4E6B0E0A4D0A0914C
:100828008201B0918301AE1BBF0B9CDFB4D09DDF6A
:10083800A0918201B091830195DFB2D0EF70F07082
:10084800E0936201F0936301E0916401F091650126
:1008580030970895A0918201B09183010895E093A3
:100868008201F09383010895A0916001B091610124
:1008780013970895E0E0E0937801E09379010895F3
:10088800A4E8B1E0ED91FD913197FE93EE93A0912C
:100898008401B091850166DF83D0EF70F070E0933A
:1008A8006201F09363018BCFA0917601B09177013B
:1008B8000895E0E0E0937201E09373010895E0E0A9
:1008C800E0937401E09375010895E0E0E093760108
:1008D800E09377010895E0E0E0936A01E0936B010B
:1008E8000895E0E0E0936C01E0936D010895E0E085
:1008F800E0936E01E0936F010895E0938401F09313
:1009080085010895ED91FD913196FE93EE9308953A
:1009180046DFA0918A01B0918B015ED00895E8E28C
:10092800F0E039D00895A0918A01B0918B0154D09C
:100938000895E0E0E0938A01E0938B019FCCE0E02A
:1009480005D00895F195E195F0400895EA17E1E0A2
:1009580009F0EE270895FA9FF02DEB9FF00DEA9F1E
:10096800E02DF10D08952AD0F6DF0EF4EBDF08959F
:100978000024112490E1AA0FBB1F001C111C0E1AA1
:100988001F0A18F40E0E1F1E01C0A1609A9599F750
:10099800FD01D001089512D0EBDF0EF4D3DF0895E6
:1009A800E894B7FF04C0A095B09511966894F7FD38
:1009B800C9DFDEDFFD010EF4C5DF0895E894F7FF17
:1009C80002C0C0DF6894B7FF06C0A095B095119625
:1009D80000F8039400FA089500240A160B060895F7
:00000001FF
