:0600000030C0FECFFDCF71
:10000600FCCFFBCFFACFF9CFF8CFB9C1F6CFF5CFFA
:10001600F4CFF3CFF2CFF1CFF0CFEFCFEECFEDCFDE
:1000260000007C007C000A003F0006005B004F00D9
:1000360066006D007D0007007F006F000100020072
:100046002600010080012800010082012A0001002B
:1000560084012C0013008C012E000000F894EE277A
:10006600ECBBF1E0FBBFEBBFE5BFF8E1F1BDE1BDE5
:100076008DE0A2E0BB27ED938A95E9F780E094E056
:10008600A0E6ED930197E9F7E2E4F0E0859195911A
:10009600009761F0A591B59105901590BF01F0010B
:1000A60005900D920197E1F7FB01F0CFEFE5EDBF6B
:1000B600E4E0EEBFC0E6D1E021C2AED2E9E1E1BDA7
:1000C600E9E0E1BD78940895A7D2E9E1E1BDE9E070
:1000D600E1BD78940895E881F0E0309719F4E09155
:1000E6008C013FC0BBD219F4E0918E013AC0BAD25E
:1000F60019F4E091900135C0B9D219F4E09192015A
:1001060030C0E430A0E0FA0719F4E091940129C068
:10011600E530A0E0FA0719F4E091960122C0E63036
:10012600A0E0FA0719F4E09198011BC0E730A0E0BF
:10013600FA0719F4E0919A0114C0E830A0E0FA0732
:1001460019F4E0919C010DC0E930A0E0FA0719F41A
:10015600E0919E0106C0EA30A0E0FA0719F4E091AA
:10016600A001E2BB2196089585D289D28ED2A1F54F
:1001760091D21A970CF093D299D224F47BD2AC9AEE
:1001860098D29AD293D214F09BD20CF002C072D2BB
:1001960076D296D214F097D20CF005C06BD2AC98FA
:1001A600A89AC59893D28FD214F094D20CF002C0BC
:1001B60061D265D28FD214F090D20CF005C05AD21B
:1001C600AC98A898C59A8CD288D214F08DD20CF02F
:1001D60002C050D254D24DC045D2B1F585D20CF0F2
:1001E6005ED264D224F483D2AB9A84D265D25ED234
:1001F60014F066D20CF003C07AD27FD280D260D2DD
:1002060014F061D20CF005C072D2AB98A99AAD98E1
:100216005DD259D214F05ED20CF003C068D26DD212
:100226006ED258D214F059D20CF005C060D2AB98F9
:10023600A998AD9A55D251D214F056D20CF003C0FB
:1002460056D25BD25CD215C011D299F44DD20CF0C5
:1002560026D22CD224F40ED2AA9A2BD22DD226D272
:1002660014F042D20CF005C0AC9847D2AA9821D21D
:1002760046D2089547D249F54BD211F483D285D29E
:1002860089D209F48DD23ED201F590D2ECF0B19B21
:1002960002C0B29901C002C08FD291D239D241F4C4
:1002A60093D2A436E0E0BE0714F093D201C097D2F1
:1002B60071D209F475D288D294D2EA17FB0724F0DA
:1002C60090D292D296D26CD2DECF99D209F59DD237
:1002D60009F485D25FD209F463D291D2C9F466D209
:1002E600B4F093D241F4C6D2A436E0E0BE0714F0CF
:1002F60070D201C074D24ED209F452D2BBD271D29E
:10030600EA17FB0724F06DD2BAD273D249D2E5CFF1
:10031600BBD2A1F5BFD2C4D243D2B6D279F5D4D2DC
:10032600A93BE1E0BE07A4F0CFDED3D2D8D2DDD21E
:10033600E2D2E7D2ECD2AED2E0E0E0936001E09305
:1003460061013AD2E0938A01F0938B01689420F818
:10035600A0917801B091790197977CF09BD2A0D2B9
:100366001FD2A0918401B09185013BD2EA17FB0709
:1003760024F037D2D2D23DD213D2CFCF08950A92EB
:100386001A92FA926A937A938A939A93AA93BA9351
:10039600EA93FA93EFB7EA93EAEFEDBDE3E2ECBD39
:1003A600ACE7B1E0BFD2A0917C01B0917D01599735
:1003B6000CF483C0E0E0E0937C01E0937D0165D11D
:1003C60051F5A2E7B1E0AED2B19B05C0A0E0B2996B
:1003D600A1E0A03009F00FC0AAE6B1E0A3D23197A0
:1003E600E2E0F0E0A5D234F0A0917201B091730181
:1003F600A6D2FAD16ED2A0916A01B0916B0115977F
:100406004CF079D2E0918001F0918101E093860170
:10041600F09387014FC026D129F5A4E7B1E082D237
:10042600B19B02C0B29901C00DC0ACE6B1E07AD270
:10043600C3D17ED234F0A0917401B09175017FD200
:100446001ED24DD2A0916C01B0916D0115974CF062
:1004560058D2E0918201F0918301E0938801F093F4
:10046600890128C003D131F5A6E7B1E05BD2A0E04F
:10047600B199A1E0A03011F4B29901C00CC0AEE66A
:10048600B1E050D2E1E0F0E053D224F01DD21A964A
:1004960056D243D22AD2A0916E01B0916F01159720
:1004A6004CF035D2E0918401F0918501E0937A0118
:1004B600F0937B01A8E7B1E035D2AEE7B1E032D2E6
:1004C600A0917E01B0917F011F9731F4E0E0E093A7
:1004D6007E01E0937F01A895A8E6B1E023D244DE31
:1004E600E991EFBFF991E991B991A9919991899112
:1004F60079916991F990199009901895E0E2E8BB15
:10050600E7BBEFE3E5BBE4BBE0E0E2BBEFEFE1BB5B
:10051600B19903C0E1E0F0E006C0B29903C0E2E0A1
:10052600F0E001C049D1E0936001F0936101C5DDBF
:100536000AD20CF00ED207D20CF00BD2A0918A018F
:10054600B0918B0112970CF465C020FE1EC0A0E08E
:10055600B199A1E004D20E2EA0E0B299A1E0FFD19C
:10056600E02991F0AADDE89420F8B19903C0E1E012
:10057600F0E006C0B29903C0E2E0F0E001C01CD191
:10058600E0936001F0936101E0CFE0E0E093700159
:10059600E0937101A0917001B09171011297ACF5D1
:1005A600E89421F822F823F8E0918601F09187017A
:1005B6001BD1E0918801F091890161D1E0917A0126
:1005C600F0917B01AAD1A0E021FCA1E0C8D10E2EBA
:1005D600A0E022FCA1E0C3D10E22A0E023FCA1E012
:1005E600BED1E02171F08ED011F4689423F807D1C2
:1005F60011F4689421F848D111F4689422F83ADE8F
:10060600E2CFA0E7B1E08ED1C5CFE0E0E0938A016A
:10061600E0938B0190CFFFCFE0E0E3BFE2BFEFBDF9
:10062600E2E0EEBDEAEFEDBDE3E2ECBDE0E0E7BD02
:10063600E6BDEBBDEABDE9BDE8BDE2BDE5BDE4BD95
:10064600E3BDE5BFE4E0E9BFE0E0EAB9E0E8E8B928
:10065600E0E0E0BFE6B9EDB9E6BF0895E130A0E01D
:10066600FA070895E230A0E0FA070895E330A0E023
:10067600FA070895AA98AB98A998AD980895AC98EA
:10068600A898C598EAE0EA9326CDE0916001F0913A
:100696006101E4CFA0916801B09169010895E1E09C
:1006A600F0E0E0936801F09369010895F3DF139792
:1006B6000895A898C5980895E0916201EA930BCD34
:1006C600E9DF14970895E6DF16970895E09164012F
:1006D600EA9301CDDFDF17970895DCDF19970895B8
:1006E600E0916601EA93F7CCD5DF1A970895AA98A8
:1006F600AC98DFCFA998AD980895AB98FBCFEAE008
:10070600EA93E9CCA0916001B09161011197089537
:10071600E0E0E0937801E0937901A0E8B1E0ED91A3
:10072600FD913197FE93EE93A0918001B0918101E6
:10073600E4E6F0E040D1E0936601F0936701A4E6B9
:10074600B0E021D1A0918001B0918101AE1BBF0B19
:10075600EAE0F0E030D1E0936401F0936501A09106
:100766008001B0918101EAE0F0E02AD1EF70F070EB
:10077600E0936201F0936301E0916401F0916501F9
:1007860030970895EAE0F0E00895E0936401F0936D
:1007960065010895E0916601F0916701309708952B
:1007A600F1DFE0936601F09367010895A091780167
:1007B600B091790198970895E3E0F0E00895E09309
:1007C6006001F09361010895A0918001B0918101CB
:1007D6000895E0E0E0936401E09365010895D2DFB7
:1007E600D4CFEFEFFFEF0895E0938001F0938101FE
:1007F6000895C8DFE0936201F0936301F0CFA09102
:100806006001B091610112970895E0E0E0937801EC
:10081600E0937901A2E8B1E0ED91FD913197FE9365
:10082600EE93A0918201B0918301E4E6F0E0C3D09B
:10083600E0936601F0936701A4E6B0E0A4D0A0912E
:100846008201B0918301AE1BBF0B9CDFB4D09DDF4C
:10085600A0918201B091830195DFB2D0EF70F07064
:10086600E0936201F0936301E0916401F091650108
:1008760030970895A0918201B09183010895E09385
:100886008201F09383010895A0916001B091610106
:1008960013970895E0E0E0937801E09379010895D5
:1008A600A4E8B1E0ED91FD913197FE93EE93A0910E
:1008B6008401B091850166DF83D0EF70F070E0931C
:1008C6006201F09363018BCFA0917601B09177011D
:1008D6000895E0E0E0937201E09373010895E0E08B
:1008E600E0937401E09375010895E0E0E0937601EA
:1008F600E09377010895E0E0E0936A01E0936B01ED
:100906000895E0E0E0936C01E0936D010895E0E066
:10091600E0936E01E0936F010895E0938401F093F4
:1009260085010895ED91FD913196FE93EE9308951C
:1009360046DFA0918A01B0918B015ED00895E8E26E
:10094600F0E039D00895A0918A01B0918B0154D07E
:100956000895E0E0E0938A01E0938B018BCCE0E020
:1009660005D00895F195E195F0400895EA17E1E084
:1009760009F0EE270895FA9FF02DEB9FF00DEA9F00
:10098600E02DF10D08952AD0F6DF0EF4EBDF089581
:100996000024112490E1AA0FBB1F001C111C0E1A83
:1009A6001F0A18F40E0E1F1E01C0A1609A9599F732
:1009B600FD01D001089512D0EBDF0EF4D3DF0895C8
:1009C600E894B7FF04C0A095B09511966894F7FD1A
:1009D600C9DFDEDFFD010EF4C5DF0895E894F7FFF9
:1009E60002C0C0DF6894B7FF06C0A095B095119607
:1009F60000F8039400FA089500240A160B060895D9
:00000001FF
