:0E00000030C0FECFFDCFFCCFFBCFFACFF9CF43
:10000E00F8CFB6C194C1F5CFF4CFF3CFF2CFF1CF85
:10001E00F0CFEFCFEECFEDCF00007C007C000A00DA
:10002E003F0006005B004F0066006D007D0007007C
:10003E007F006F0001000200260001007C012800F5
:10004E0001007E012A00010080012C0013008801AE
:10005E002E000000F894EE27ECBBF1E0FBBFEBBFE7
:10006E00E5BFF8E1F1BDE1BD8DE0A2E0BB27ED9368
:10007E008A95E9F780E094E0A0E6ED930197E9F721
:10008E00E2E4F0E085919591009761F0A591B5912C
:10009E0005901590BF01F00105900D920197E1F7C3
:1000AE00FB01F0CFEFE5EDBFE4E0EEBFC0E6D1E03F
:1000BE00F0C1E4E07CD2E2E0EEBD7ED282D2E5E099
:1000CE00E9BF78940895E0E072D2E0E0EEBDEDBDB8
:1000DE00ECBD77D2E0E0E9BFF8940895E881F0E056
:1000EE00309719F4E09188013FC073D219F4E09172
:1000FE008A013AC072D219F4E0918C0135C071D2E6
:10010E0019F4E0918E0130C0E430A0E0FA0719F442
:10011E00E091900129C0E530A0E0FA0719F4E091D2
:10012E00920122C0E630A0E0FA0719F4E0919401A2
:10013E001BC0E730A0E0FA0719F4E091960114C055
:10014E00E830A0E0FA0719F4E09198010DC0E9300B
:10015E00A0E0FA0719F4E0919A0106C0EA30A0E097
:10016E00FA0719F4E0919C01E2BB21960895A09143
:10017E006801B0916901149729F4E0E0E0936801F9
:10018E00E093690132D2E1F435D229F439D23DD26D
:10019E003FD2AC9A14C01DD231F432D2AC98C5986D
:1001AE003BD2A89A0CC019D231F42AD2AC98A89896
:1001BE0037D2C59A04C015D211F436D239D231C015
:1001CE000CD201F517D239F4AA9832D2A998AD986B
:1001DE001FD2AB9A16C0FDD139F4AA9829D2AB988A
:1001EE00AD981AD2A99A0DC0F8D139F4AA9820D296
:1001FE00AB98A99815D2AD9A04C0F3D111F414D2CC
:10020E0017D20FC0EED169F4F5D129F4F9D1FDD191
:10021E00FFD1AC9A06C0DDD119F406D209D201C0C5
:10022E00DCD1089507D249F50BD211F443D245D251
:10023E0049D209F44DD2FED101F550D2ECF0B19B6A
:10024E0002C0B29901C002C04FD251D2F9D141F4CD
:10025E0053D2A436E0E0BE0714F053D201C057D2F9
:10026E0031D209F435D248D254D2EA17FB0724F022
:10027E0050D252D256D22CD2DECF59D209F55DD2FF
:10028E0009F445D21FD209F423D251D2C9F426D291
:10029E00B4F053D241F486D2A436E0E0BE0714F097
:1002AE0030D201C034D20ED209F412D27BD231D266
:1002BE00EA17FB0724F02DD27AD233D209D2E5CF3A
:1002CE007BD2A1F57FD284D203D276D279F594D2A5
:1002DE00A93BE1E0BE07A4F0F6DE93D298D29DD200
:1002EE00A2D2A7D2ACD26ED2E0E0E0936001E0934E
:1002FE006101FAD1E0938601F0938701689420F8AA
:10030E00A0917801B091790197977CF05BD260D281
:10031E00DFD1A0918001B0918101FBD1EA17FB07DB
:10032E0024F0F7D192D2FDD1D3D1CFCF08950A9236
:10033E001A92FA926A937A938A939A93AA93BA9399
:10034E00EA93FA93EFB7EA93E8E7E2BFA8E6B1E0E3
:10035E0081D20DDFE991EFBFF991E991B991A991A0
:10036E009991899179916991F990199009901895BF
:10037E000A921A929A93AA93BA93EA93FA93EFB7C0
:10038E00EA931AD132D151F5A2E7B1E063D2B19B13
:10039E0005C0A0E0B299A1E0A03009F00FC0AAE616
:1003AE00B1E058D23197E2E0F0E05AD234F0A091A9
:1003BE007201B09173015BD2AFD123D2A0916A01C9
:1003CE00B0916B0115974CF02ED2E0917C01F0911B
:1003DE007D01E0938201F09383014EC0FED029F59A
:1003EE00A4E7B1E037D2B19B02C0B29901C00DC0F3
:1003FE00ACE6B1E02FD278D133D234F0A0917401B3
:10040E00B091750134D2D3D102D2A0916C01B091CA
:10041E006D0115974CF00DD2E0917E01F0917F01A8
:10042E00E0938401F093850127C0DBD029F5A6E780
:10043E00B1E010D2A0E0B199A1E0A03011F4B299D0
:10044E0001C00BC0AEE6B1E005D2E1E0F0E008D2AB
:10045E001CF0D2D10CD2F9D1E0D1A0916E01B091A5
:10046E006F0115974CF0EBD1E0918001F091810175
:10047E00E0937A01F0937B01A8E7B1E0EBD1E9912B
:10048E00EFBFF991E991B991A991999119900990BC
:10049E001895E0E2E8BBE7BBEFE3E5BBE4BBE0E0C9
:1004AE00E2BBEFEFE1BBB19903C0E1E0F0E006C0C3
:1004BE00B29903C0E2E0F0E001C016D1E093600112
:1004CE00F0936101F6DDD7D10CF0DBD1D4D10CF075
:1004DE00D8D1A0918601B091870112970CF465C016
:1004EE0020FE1EC0A0E0B199A1E0D1D10E2EA0E059
:1004FE00B299A1E0CCD1E02991F0DBDDE89420F8AF
:10050E00B19903C0E1E0F0E006C0B29903C0E2E0A9
:10051E00F0E001C0E9D0E0936001F0936101E0CF1B
:10052E00E0E0E0937001E0937101A0917001B09151
:10053E0071011297ACF5E89421F822F823F8E091B6
:10054E008201F0918301E8D0E0918401F091850160
:10055E002ED1E0917A01F0917B0177D1A0E021FCC0
:10056E00A1E095D10E2EA0E022FCA1E090D10E22AA
:10057E00A0E023FCA1E08BD1E02171F05BD011F45F
:10058E00689423F8D4D011F4689421F815D111F49D
:10059E00689422F847DEE2CFA0E7B1E05BD1C5CF89
:1005AE00E0E0E0938601E093870190CFFFCFE3BFB9
:1005BE00E0E0E2BFEFBD0895EEE9EDBDE7E5ECBD8D
:1005CE000895E0E0E7BDE6BDEBBDEABDE9BDE8BDDF
:1005DE000895E130A0E0FA070895E230A0E0FA07AE
:1005EE000895E330A0E0FA070895E0916001F091DC
:1005FE006101EFCFE0916801F091690130970895A4
:10060E00AA98AB98A998AD980895A898C5980895FA
:10061E00E0916201EA9362CDE0916401EA935ECDCE
:10062E00E0916601EA935ACDEAE0EA9357DDE8CF0E
:10063E00AC98EBCFA0916001B09161011197089534
:10064E00E0E0E0937801E0937901ACE7B1E0ED9161
:10065E00FD913197FE93EE93A0917C01B0917D01B7
:10066E00E4E6F0E040D1E0936601F0936701A4E682
:10067E00B0E021D1A0917C01B0917D01AE1BBF0BEA
:10068E00EAE0F0E030D1E0936401F0936501A091CF
:10069E007C01B0917D01EAE0F0E02AD1EF70F070BC
:1006AE00E0936201F0936301E0916401F0916501C2
:1006BE0030970895EAE0F0E00895E0936401F09336
:1006CE0065010895E0916601F091670130970895F4
:1006DE00F1DFE0936601F09367010895A091780130
:1006EE00B091790198970895E3E0F0E00895E093D2
:1006FE006001F09361010895A0917C01B0917D019C
:10070E000895E0E0E0936401E09365010895D2DF7F
:10071E00D4CFEFEFFFEF0895E0937C01F0937D01CE
:10072E000895C8DFE0936201F0936301F0CFA091CA
:10073E006001B091610112970895E0E0E0937801B5
:10074E00E0937901AEE7B1E0ED91FD913197FE9323
:10075E00EE93A0917E01B0917F01E4E6F0E0C3D06C
:10076E00E0936601F0936701A4E6B0E0A4D0A091F7
:10077E007E01B0917F01AE1BBF0B9CDFB4D09DDF1D
:10078E00A0917E01B0917F0195DFB2D0EF70F07035
:10079E00E0936201F0936301E0916401F0916501D1
:1007AE0030970895A0917E01B0917F010895E09356
:1007BE007E01F0937F010895A0916001B0916101D7
:1007CE0013970895E0E0E0937801E093790108959E
:1007DE00A0E8B1E0ED91FD913197FE93EE93A091DB
:1007EE008001B091810166DF83D0EF70F070E093ED
:1007FE006201F09363018BCFA0917601B0917701E6
:10080E000895E0E0E0937201E09373010895E0E053
:10081E00E0937401E09375010895E0E0E0937601B2
:10082E00E09377010895E0E0E0936A01E0936B01B5
:10083E000895E0E0E0936C01E0936D010895E0E02F
:10084E00E0936E01E0936F010895E0938001F093C1
:10085E0081010895ED91FD913196FE93EE930895E9
:10086E0046DFA0918601B09187015ED00895E8E23F
:10087E00F0E039D00895A0918601B091870154D04F
:10088E000895E0E0E0938601E0938701CBCCE0E0B1
:10089E0005D00895F195E195F0400895EA17E1E04D
:1008AE0009F0EE270895FA9FF02DEB9FF00DEA9FC9
:1008BE00E02DF10D08952AD0F6DF0EF4EBDF08954A
:1008CE000024112490E1AA0FBB1F001C111C0E1A4C
:1008DE001F0A18F40E0E1F1E01C0A1609A9599F7FB
:1008EE00FD01D001089512D0EBDF0EF4D3DF089591
:1008FE00E894B7FF04C0A095B09511966894F7FDE3
:10090E00C9DFDEDFFD010EF4C5DF0895E894F7FFC1
:10091E0002C0C0DF6894B7FF06C0A095B0951196CF
:10092E0000F8039400FA089500240A160B060895A1
:00000001FF
