:0C00000030C0FECFFDCFFCCFFBCFFACF0D
:10000C00F9CFF8CFE7C1C5C1F5CFF4CFF3CFF2CF1D
:10001C00F1CFF0CFEFCFEECFEDCF0000C800C8008E
:10002C000A003F0006005B004F0066006D007D007B
:10003C0007007F006F0001000200260001007C0118
:10004C00280001007E012A00010080012C00130011
:10005C0088012E000000F894EE27ECBBF1E0FBBF0A
:10006C00EBBFE5BFF8E1F1BDE1BD8DE0A2E0BB2740
:10007C00ED938A95E9F780E094E0A0E6ED93019783
:10008C00E9F7E2E4F0E085919591009761F0A59194
:10009C00B59105901590BF01F00105900D92019757
:1000AC00E1F7FB01F0CFEFE5EDBFE4E0EEBFC0E61A
:1000BC00D1E021C2E3E0E3BFE2E8E2BFE0E0EFBD64
:1000CC00E2E0EEBDA6D2AAD2E5E0E9BF78940895AD
:1000DC00E0E0E3BFE2BFEFBDEEBDEDBDECBD9ED2F7
:1000EC00E0E0E9BFF8940895E881F0E0309719F466
:1000FC00E09188013FC09AD219F4E0918A013AC08C
:10010C0099D219F4E0918C0135C098D219F4E09190
:10011C008E0130C0E430A0E0FA0719F4E0919001B0
:10012C0029C0E530A0E0FA0719F4E091920122C051
:10013C00E630A0E0FA0719F4E09194011BC0E73017
:10014C00A0E0FA0719F4E091960114C0E830A0E0A1
:10015C00FA0719F4E09198010DC0E930A0E0FA0714
:10016C0019F4E0919A0106C0EA30A0E0FA0719F4FC
:10017C00E0919C01E2BB2196089564D268D26DD2C5
:10018C00A1F570D21A970CF072D278D224F45AD20C
:10019C00AC9A77D279D272D214F07AD20CF002C027
:1001AC0051D255D275D214F076D20CF005C04AD289
:1001BC00AC98A89AC59872D26ED214F073D20CF087
:1001CC0002C040D244D26ED214F06FD20CF005C0F3
:1001DC0039D2AC98A898C59A6BD267D214F06CD26D
:1001EC000CF002C02FD233D24EC024D2B1F564D25F
:1001FC000CF03DD243D224F462D2AB9A63D244D2F7
:10020C003DD214F045D20CF003C059D25ED25FD26D
:10021C003FD214F040D20CF005C051D2AB98A99A41
:10022C00AD983CD238D214F03DD20CF003C047D27A
:10023C004CD24DD237D214F038D20CF005C03FD28C
:10024C00AB98A998AD9A34D230D214F035D20CF0C8
:10025C0003C035D23AD23BD216C0F0D1A1F42CD285
:10026C000CF005D20BD22CF4AC980BD22ED2AA9A4D
:10027C000BD204D214F020D20CF005C0AC9801D2F1
:10028C0024D2AA9824D2089525D249F529D211F462
:10029C0061D263D267D209F46BD21CD201F56ED253
:1002AC00ECF0B19B02C0B29901C002C06DD26FD20A
:1002BC0017D241F471D2A536E0E0BE0714F071D22A
:1002CC0001C075D24FD209F453D266D272D2EA175A
:1002DC00FB0724F06ED270D274D24AD2DECF77D222
:1002EC0009F57BD209F463D23DD209F441D26FD225
:1002FC00C9F444D2B4F071D241F4A4D2A536E0E0F2
:10030C00BE0714F04ED201C052D22CD209F430D216
:10031C0099D24FD2EA17FB0724F04BD298D251D284
:10032C0027D2E5CF99D2A1F59DD2A2D221D294D2D7
:10033C0079F5B2D2A93BE1E0BE07A4F0C9DEB1D297
:10034C00B6D2BBD2C0D2C5D2CAD28CD2E0E0E09336
:10035C006001E093610118D2E0938601F09387016C
:10036C00689420F8A0917801B091790197977CF06E
:10037C0079D27ED2FDD1A0918001B091810119D2A8
:10038C00EA17FB0724F015D2B0D21BD2F1D1CFCF94
:10039C0008950A921A92FA926A937A938A939A938C
:1003AC00AA93BA93EA93FA93EFB7EA93E2E8E2BF1F
:1003BC00A8E6B1E09FD2E1DEE991EFBFF991E991B6
:1003CC00B991A9919991899179916991F990199023
:1003DC00099018950A921A929A93AA93BA93EA934F
:1003EC00FA93EFB7EA9315D138D151F5A2E7B1E002
:1003FC0081D2B19B05C0A0E0B299A1E0A03009F078
:10040C000FC0AAE6B1E076D23197E2E0F0E078D204
:10041C0034F0A0917201B091730179D2CDD141D257
:10042C00A0916A01B0916B0115974CF04CD2E09100
:10043C007C01F0917D01E0938201F09383014EC029
:10044C00F9D029F5A4E7B1E055D2B19B02C0B2991D
:10045C0001C00DC0ACE6B1E04DD296D151D234F012
:10046C00A0917401B091750152D2F1D120D2A0911A
:10047C006C01B0916D0115974CF02BD2E0917E017F
:10048C00F0917F01E0938401F093850127C0D6D0D1
:10049C0029F5A6E7B1E02ED2A0E0B199A1E0A030F9
:1004AC0011F4B29901C00BC0AEE6B1E023D2E1E089
:1004BC00F0E026D21CF0F0D12AD217D2FED1A091B6
:1004CC006E01B0916F0115974CF009D2E09180014B
:1004DC00F0918101E0937A01F0937B01A8E7B1E000
:1004EC0009D2E991EFBFF991E991B991A99199914B
:1004FC00199009901895E0E2E8BBE7BBEFE3E5BB88
:10050C00E4BBE0E0E2BBEFEFE1BBB19903C0E1E09B
:10051C00F0E006C0B29903C0E2E0F0E001C034D1D3
:10052C00E0936001F0936101C5DDF5D10CF0F9D1D8
:10053C00F2D10CF0F6D1A0918601B09187011297FF
:10054C000CF465C020FE1EC0A0E0B199A1E0EFD173
:10055C000E2EA0E0B299A1E0EAD1E02991F0AADD3B
:10056C00E89420F8B19903C0E1E0F0E006C0B2993C
:10057C0003C0E2E0F0E001C007D1E0936001F0932A
:10058C006101E0CFE0E0E0937001E0937101A09194
:10059C007001B09171011297ACF5E89421F822F832
:1005AC0023F8E0918201F091830106D1E09184015E
:1005BC00F09185014CD1E0917A01F0917B0195D1BC
:1005CC00A0E021FCA1E0B3D10E2EA0E022FCA1E022
:1005DC00AED10E22A0E023FCA1E0A9D1E02171F064
:1005EC0079D011F4689423F8F2D011F4689421F8BE
:1005FC0033D111F4689422F847DEE2CFA0E7B1E0E2
:10060C0079D1C5CFE0E0E0938601E093870190CFEC
:10061C00FFCFEEE9EDBDE7E5ECBD0895E0E0E7BD09
:10062C00E6BDEBBDEABDE9BDE8BD0895E130A0E053
:10063C00FA070895E230A0E0FA070895E330A0E04D
:10064C00FA070895AA98AB98A998AD980895AC9814
:10065C00A898C598EAE0EA9347CDE0916001F09143
:10066C006101E4CFA0916801B09169010895E1E0C6
:10067C00F0E0E0936801F09369010895F3DF1397BC
:10068C000895A898C5980895E0916201EA932CCD3D
:10069C00E9DF14970895E6DF16970895E091640159
:1006AC00EA9322CDDFDF17970895DCDF19970895C1
:1006BC00E0916601EA9318CDD5DF1A970895AA98B0
:1006CC00AC98DFCFA998AD980895AB98FBCFEAE032
:1006DC00EA930ACDA0916001B09161011197089540
:1006EC00E0E0E0937801E0937901ACE7B1E0ED91C3
:1006FC00FD913197FE93EE93A0917C01B0917D0119
:10070C00E4E6F0E040D1E0936601F0936701A4E6E3
:10071C00B0E021D1A0917C01B0917D01AE1BBF0B4B
:10072C00EAE0F0E030D1E0936401F0936501A09130
:10073C007C01B0917D01EAE0F0E02AD1EF70F0701D
:10074C00E0936201F0936301E0916401F091650123
:10075C0030970895EAE0F0E00895E0936401F09397
:10076C0065010895E0916601F09167013097089555
:10077C00F1DFE0936601F09367010895A091780191
:10078C00B091790198970895E3E0F0E00895E09333
:10079C006001F09361010895A0917C01B0917D01FD
:1007AC000895E0E0E0936401E09365010895D2DFE1
:1007BC00D4CFEFEFFFEF0895E0937C01F0937D0130
:1007CC000895C8DFE0936201F0936301F0CFA0912C
:1007DC006001B091610112970895E0E0E093780117
:1007EC00E0937901AEE7B1E0ED91FD913197FE9385
:1007FC00EE93A0917E01B0917F01E4E6F0E0C3D0CE
:10080C00E0936601F0936701A4E6B0E0A4D0A09158
:10081C007E01B0917F01AE1BBF0B9CDFB4D09DDF7E
:10082C00A0917E01B0917F0195DFB2D0EF70F07096
:10083C00E0936201F0936301E0916401F091650132
:10084C0030970895A0917E01B0917F010895E093B7
:10085C007E01F0937F010895A0916001B091610138
:10086C0013970895E0E0E0937801E09379010895FF
:10087C00A0E8B1E0ED91FD913197FE93EE93A0913C
:10088C008001B091810166DF83D0EF70F070E0934E
:10089C006201F09363018BCFA0917601B091770147
:1008AC000895E0E0E0937201E09373010895E0E0B5
:1008BC00E0937401E09375010895E0E0E093760114
:1008CC00E09377010895E0E0E0936A01E0936B0117
:1008DC000895E0E0E0936C01E0936D010895E0E091
:1008EC00E0936E01E0936F010895E0938001F09323
:1008FC0081010895ED91FD913196FE93EE9308954B
:10090C0046DFA0918601B09187015ED00895E8E2A0
:10091C00F0E039D00895A0918601B091870154D0B0
:10092C000895E0E0E0938601E0938701ADCCE0E030
:10093C0005D00895F195E195F0400895EA17E1E0AE
:10094C0009F0EE270895FA9FF02DEB9FF00DEA9F2A
:10095C00E02DF10D08952AD0F6DF0EF4EBDF0895AB
:10096C000024112490E1AA0FBB1F001C111C0E1AAD
:10097C001F0A18F40E0E1F1E01C0A1609A9599F75C
:10098C00FD01D001089512D0EBDF0EF4D3DF0895F2
:10099C00E894B7FF04C0A095B09511966894F7FD44
:1009AC00C9DFDEDFFD010EF4C5DF0895E894F7FF23
:1009BC0002C0C0DF6894B7FF06C0A095B095119631
:1009CC0000F8039400FA089500240A160B06089503
:00000001FF
