:0C00000038C0FECFFDCFFCCFFBCFFACF05
:10000C00F9CFF8CF0CC2EDC1F5CFF4CFF3CFF2CFCF
:10001C00F1CFF0CFEFCFEECFEDCF000029002900CC
:10002C000A003F0006005B004F0066006D007D007B
:10003C0007007F006F0000000000000000000000BF
:10004C000100020026000100720128000100740169
:10005C002A00010076012C0013007E012E000A00FC
:10006C00040042000000F894EE27ECBBF1E0FBBF6B
:10007C00EBBFE5BFF8E1F1BDE1BD8DE0A2E0BB2730
:10008C00ED938A95E9F780E094E0A0E6ED93019773
:10009C00E9F7ECE4F0E085919591009761F0A5917A
:1000AC00B59105901590BF01F00105900D92019747
:1000BC00E1F7FB01F0CFEFE5EDBFE4E0EEBFC0E60A
:1000CC00D1E0BEC1E3E0E3BFE2E8E2BFE0E0EFBDB8
:1000DC00E2E0EEBD3DD241D2E5E0E9BF789408956F
:1000EC00E0E0E3BFE2BFEFBDEEBDEDBDECBD35D250
:1000FC00E0E0E9BFF8940895E881F0E0309719F456
:10010C00E0917E0145C0E130A0E0FA0719F4E091DE
:10011C0080013EC0E230A0E0FA0719F4E0918201C0
:10012C0037C0E330A0E0FA0719F4E091840130C045
:10013C00E430A0E0FA0719F4E091860129C0E5301B
:10014C00A0E0FA0719F4E091880122C0E630A0E0A3
:10015C00FA0719F4E0918A011BC0E730A0E0FA0716
:10016C0019F4E0918C0114C0E830A0E0FA0719F4FE
:10017C00E0918E010DC0E930A0E0FA0719F4E0918E
:10018C00900106C0EA30A0E0FA0719F4E091920160
:10019C00E2BB21960895E9D1EDD1F201E130A0E066
:1001AC00FA07B1F5EDD10CF4F0D1F3D12CF0DDD18F
:1001BC00AC98F4D16A92A0DFECD114F4F2D10CF427
:1001CC0002C0D3D1D7D1EDD114F4F0D10CF406C0C8
:1001DC00CCD1AC9AA898C59A8A928EDFE7D114F448
:1001EC00EAD10CF402C0C1D1C5D1E5D114F4E8D1E7
:1001FC000CF406C0BAD1AC9AA89AC598AA927CDF26
:10020C00DFD114F4BDD10CF402C0AFD1B3D156C0C0
:10021C00E230A0E0FA07C9F5B3D10CF4B6D1B9D1EC
:10022C002CF0D3D1AB98D4D16A9266DFB2D114F44E
:10023C00B8D10CF403C0C9D1CED1CFD1B2D114F402
:10024C00B5D10CF406C0C1D1AB9AA998AD9A8A92DB
:10025C0053DFACD114F4AFD10CF403C0B6D1BBD185
:10026C00BCD1A9D114F4ACD10CF406C0AED1AB9A6C
:10027C00A99AAD98AA9240DFA3D114F481D10CF4C1
:10028C0003C0A3D1A8D1A9D119C0E330A0E0FA07CB
:10029C00A9F476D10CF479D17CD134F0AC9A7ED11E
:1002AC009AD1AA986A9228DF74D114F469D10CF40B
:1002BC0005C0AC9A73D18FD1AA9A8FD1089590D1E1
:1002CC0029F593D111F4BBD14F01BCD109F4BDD1A7
:1002DC0087D1E1F4BDD1CCF0B19B02C0B29901C081
:1002EC0002C0BCD12F0181D109F4BBD1ABD109F42F
:1002FC00B8D1A0917201B0917301B6D1EA17FB0786
:10030C0024F0B2D1B4D1B8D1A0D1E2CFB8D1E9F4B4
:10031C00BBD109F4A6D196D109F497D1B0D1A9F4E7
:10032C0097D194F0B1D109F49CD18CD109F48DD131
:10033C00A0917401B091750197D1EA17FB0724F0D5
:10034C0093D1CBD199D181D1E9CFCCD109F048C08F
:10035C00CDD1D2D17AD1C6D109F042C0A0916C01D5
:10036C00B0916D01A93BE1E0BE0724F1B9DEE0E0FC
:10037C00E0936801E0936901E0936A01E0936B01FB
:10038C00E0936C01E0936D01E0936001E0936101F7
:10039C00E0936201E0936301E0936401E0936501F3
:1003AC00A5D1442455245AD1E0937C01F0937D01CE
:1003BC00689420F8A0916E01B0916F0197977CF032
:1003CC0095D19AD142D1A0917601B09177014CD1BF
:1003DC00EA17FB0724F048D19ED14ED136D1BBCFC2
:1003EC0008950A921A92FA926A937A938A939A933C
:1003FC00AA93BA93EA93FA93EFB7EA93E2E8E2BFCF
:10040C00CADEE991EFBFF991E991B991A99199915E
:10041C00899179916991F990199009901895AA93FD
:10042C00BA93EA93FA93EFB7EA9392D0AEE6B1E0BF
:10043C0077D1E991EFBFF991E991B991A99118950B
:10044C00E0E2E8BBE7BBEFE3E5BBE4BBE0E0E2BB2B
:10045C00EFEFE1BBB19903C0E1E0F0E006C0B29967
:10046C0003C0E2E0F0E001C0F9D02F012BDE5ED139
:10047C000CF062D15BD10CF05FD1A0917C01B091FA
:10048C007D0112970CF462C020FE1BC0A0E0B19954
:10049C00A1E058D10E2EA0E0B299A1E053D1E029F1
:1004AC0079F010DEE89420F8B19903C0E1E0F0E0B7
:1004BC0006C0B29903C0E2E0F0E001C0CFD02F013A
:1004CC00E3CFE0E0E0936601E0936701A091660161
:1004DC00B09167011297ACF5E89421F822F823F853
:1004EC00E0917801F0917901C2D0E0917A01F0911C
:1004FC007B01F3D0E0917001F09171010CD1A0E07F
:10050C0021FCA1E01FD10E2EA0E022FCA1E01AD10B
:10051C000E22A0E023FCA1E015D1E02171F060D007
:10052C0011F4689423F8ABD011F4689421F8DAD064
:10053C0011F4689422F8C3DEE2CFA6E6B1E0F0D065
:10054C00C5CFE0E0E0937C01E0937D0193CFFFCF3A
:10055C00EEE9EDBDE7E5ECBD0895E0E0E7BDE6BDF5
:10056C00EBBDEABDE9BDE8BD0895AA9AAB9AA99A7C
:10057C00AD9A0895AC9AA89AC59AEAE0EA93BCCDD4
:10058C00E9E0F0E0EC15FD050895E1E0F0E06F0125
:10059C000895E2E0F0E0EC15FD050895A89AC59ADF
:1005AC000895E3E0F0E0EC15FD050895E5E0F0E0DA
:1005BC00EC15FD050895E6E0F0E0EC15FD05089559
:1005CC00E8E0F0E0EC15FD050895AA9AAC9AE6CFA8
:1005DC00A99AAD9A0895AB9AFBCFEAE0EA938CCD39
:1005EC00E1E0F0E0E415F5050895E0E0E0936E013C
:1005FC00E0936F01A2E7B1E0ED91FD913197FE938D
:10060C00EE93E0917201F0917301EF70F0703F0185
:10061C00A0917201B0917301EAE0F0E0B2D0EF70FA
:10062C00F0704F01A0917201B0917301E4E6F0E01B
:10063C00A8D0EF70F0705F01082C09280895EAE04B
:10064C00F0E008950A2C0B280895F9DF5F01089556
:10065C00A0916E01B0916F0198970895E3E0F0E0DE
:10066C000895EDDF4F010895EFEFFFEF0895E0934C
:10067C007201F09373010895E2DF3F01F2CFE2E0E3
:10068C00F0E0E415F5050895E0E0E0936E01E093E9
:10069C006F01A4E7B1E0ED91FD913197FE93EE93DC
:1006AC00E0917401F0917501EF70F0703F01A09131
:1006BC007401B0917501C3DF64D0EF70F0704F011D
:1006CC00A0917401B0917501E4E6F0E05AD0EF709E
:1006DC00F0705F01082C09280895E0937401F093E1
:1006EC0075010895BBDFE415F5050895E0E0E0938E
:1006FC006E01E0936F010895A6E7B1E0ED91FD91D5
:10070C003197FE93EE93E0917601F0917701EF70C3
:10071C00F0703F01A6CFE0937601F0937701089536
:10072C00ED91FD913196FE93EE930895A0917C018D
:10073C00B0917D0139D00895E0E0E0937C01E09325
:10074C007D01BDCDE0E005D00895F195E195F04037
:10075C000895EA17E1E009F0EE270895002411242A
:10076C0090E1AA0FBB1F001C111C0E1A1F0A18F4D3
:10077C000E0E1F1E01C0A1609A9599F7FD01D001C4
:10078C00089504D0EBDF0EF4E0DF0895E894F7FF52
:10079C0002C0DBDF6894B7FF06C0A095B095119638
:1007AC0000F8039400FA089500240A160B06089525
:00000001FF
